{
  "contractName": "DexAggregator",
  "abi": [
    {
      "inputs": [],
      "stateMutability": "nonpayable",
      "type": "constructor"
    },
    {
      "inputs": [],
      "name": "USDC",
      "outputs": [
        {
          "internalType": "address",
          "name": "",
          "type": "address"
        }
      ],
      "stateMutability": "view",
      "type": "function",
      "constant": true
    },
    {
      "inputs": [],
      "name": "WETH",
      "outputs": [
        {
          "internalType": "address",
          "name": "",
          "type": "address"
        }
      ],
      "stateMutability": "view",
      "type": "function",
      "constant": true
    },
    {
      "inputs": [],
      "name": "name",
      "outputs": [
        {
          "internalType": "string",
          "name": "",
          "type": "string"
        }
      ],
      "stateMutability": "view",
      "type": "function",
      "constant": true
    },
    {
      "inputs": [
        {
          "internalType": "uint256",
          "name": "",
          "type": "uint256"
        }
      ],
      "name": "routers",
      "outputs": [
        {
          "internalType": "contract RouterInterface",
          "name": "",
          "type": "address"
        }
      ],
      "stateMutability": "view",
      "type": "function",
      "constant": true
    },
    {
      "inputs": [
        {
          "internalType": "address[]",
          "name": "path",
          "type": "address[]"
        },
        {
          "internalType": "uint256",
          "name": "amountIn",
          "type": "uint256"
        }
      ],
      "name": "uniRate",
      "outputs": [
        {
          "internalType": "uint256",
          "name": "",
          "type": "uint256"
        }
      ],
      "stateMutability": "view",
      "type": "function",
      "constant": true
    },
    {
      "inputs": [
        {
          "internalType": "address[]",
          "name": "path",
          "type": "address[]"
        },
        {
          "internalType": "uint256",
          "name": "amountIn",
          "type": "uint256"
        }
      ],
      "name": "sushiRate",
      "outputs": [
        {
          "internalType": "uint256",
          "name": "",
          "type": "uint256"
        }
      ],
      "stateMutability": "view",
      "type": "function",
      "constant": true
    },
    {
      "inputs": [
        {
          "internalType": "address[]",
          "name": "path",
          "type": "address[]"
        },
        {
          "internalType": "uint256",
          "name": "amountIn",
          "type": "uint256"
        }
      ],
      "name": "getHighestAmountOut",
      "outputs": [
        {
          "internalType": "uint256",
          "name": "",
          "type": "uint256"
        },
        {
          "internalType": "uint256",
          "name": "",
          "type": "uint256"
        }
      ],
      "stateMutability": "view",
      "type": "function",
      "constant": true
    },
    {
      "inputs": [],
      "name": "sender",
      "outputs": [
        {
          "internalType": "address",
          "name": "",
          "type": "address"
        }
      ],
      "stateMutability": "view",
      "type": "function",
      "constant": true
    },
    {
      "inputs": [
        {
          "internalType": "uint256",
          "name": "usdcAmount",
          "type": "uint256"
        }
      ],
      "name": "usdcToWeth",
      "outputs": [],
      "stateMutability": "nonpayable",
      "type": "function"
    }
  ],
  "bytecode": "0x60806040526040518060400160405280600681526020017f76696b746f720000000000000000000000000000000000000000000000000000815250600090805190602001906200005192919062000230565b503480156200005f57600080fd5b50737a250d5630b4cf539739df2c5dacb4c659f2488d6003600060028110620000b1577f4e487b7100000000000000000000000000000000000000000000000000000000600052603260045260246000fd5b0160006101000a81548173ffffffffffffffffffffffffffffffffffffffff021916908373ffffffffffffffffffffffffffffffffffffffff16021790555073d9e1ce17f2641f24ae83637ab66a2cca9c378b9f600360016002811062000141577f4e487b7100000000000000000000000000000000000000000000000000000000600052603260045260246000fd5b0160006101000a81548173ffffffffffffffffffffffffffffffffffffffff021916908373ffffffffffffffffffffffffffffffffffffffff16021790555073c02aaa39b223fe8d0a0e5c4f27ead9083c756cc2600160006101000a81548173ffffffffffffffffffffffffffffffffffffffff021916908373ffffffffffffffffffffffffffffffffffffffff16021790555073a0b86991c6218b36c1d19d4a2e9eb0ce3606eb48600260006101000a81548173ffffffffffffffffffffffffffffffffffffffff021916908373ffffffffffffffffffffffffffffffffffffffff16021790555062000345565b8280546200023e90620002e0565b90600052602060002090601f016020900481019282620002625760008555620002ae565b82601f106200027d57805160ff1916838001178555620002ae565b82800160010185558215620002ae579182015b82811115620002ad57825182559160200191906001019062000290565b5b509050620002bd9190620002c1565b5090565b5b80821115620002dc576000816000905550600101620002c2565b5090565b60006002820490506001821680620002f957607f821691505b6020821081141562000310576200030f62000316565b5b50919050565b7f4e487b7100000000000000000000000000000000000000000000000000000000600052602260045260246000fd5b61150980620003556000396000f3fe608060405234801561001057600080fd5b50600436106100935760003560e01c806367e404ce1161006657806367e404ce146101325780637bb4d1321461015057806389a3027114610180578063acb35b271461019e578063ad5c4648146101cf57610093565b806306fdde031461009857806323c98e1d146100b65780634e9c1118146100d2578063576c4dcb14610102575b600080fd5b6100a06101ed565b6040516100ad91906110d6565b60405180910390f35b6100d060048036038101906100cb9190610f2c565b61027b565b005b6100ec60048036038101906100e79190610f2c565b6106de565b6040516100f991906110bb565b60405180910390f35b61011c60048036038101906101179190610e6e565b610714565b60405161012991906110f8565b60405180910390f35b61013a610850565b6040516101479190611040565b60405180910390f35b61016a60048036038101906101659190610e6e565b610858565b60405161017791906110f8565b60405180910390f35b610188610994565b6040516101959190611040565b60405180910390f35b6101b860048036038101906101b39190610e6e565b6109ba565b6040516101c6929190611143565b60405180910390f35b6101d7610cc8565b6040516101e49190611040565b60405180910390f35b600080546101fa9061138d565b80601f01602080910402602001604051908101604052809291908181526020018280546102269061138d565b80156102735780601f1061024857610100808354040283529160200191610273565b820191906000526020600020905b81548152906001019060200180831161025657829003601f168201915b505050505081565b6000600260009054906101000a900473ffffffffffffffffffffffffffffffffffffffff1690508073ffffffffffffffffffffffffffffffffffffffff166323b872dd3330856040518463ffffffff1660e01b81526004016102df9392919061105b565b602060405180830381600087803b1580156102f957600080fd5b505af115801561030d573d6000803e3d6000fd5b505050506040513d601f19601f820116820180604052508101906103319190610f03565b506000600267ffffffffffffffff811115610375577f4e487b7100000000000000000000000000000000000000000000000000000000600052604160045260246000fd5b6040519080825280602002602001820160405280156103a35781602001602082028036833780820191505090505b509050600260009054906101000a900473ffffffffffffffffffffffffffffffffffffffff1681600081518110610403577f4e487b7100000000000000000000000000000000000000000000000000000000600052603260045260246000fd5b602002602001019073ffffffffffffffffffffffffffffffffffffffff16908173ffffffffffffffffffffffffffffffffffffffff1681525050600160009054906101000a900473ffffffffffffffffffffffffffffffffffffffff168160018151811061049a577f4e487b7100000000000000000000000000000000000000000000000000000000600052603260045260246000fd5b602002602001019073ffffffffffffffffffffffffffffffffffffffff16908173ffffffffffffffffffffffffffffffffffffffff16815250506000806104e183866109ba565b915091508373ffffffffffffffffffffffffffffffffffffffff1663095ea7b36003846002811061053b577f4e487b7100000000000000000000000000000000000000000000000000000000600052603260045260246000fd5b0160009054906101000a900473ffffffffffffffffffffffffffffffffffffffff16876040518363ffffffff1660e01b815260040161057b929190611092565b602060405180830381600087803b15801561059557600080fd5b505af11580156105a9573d6000803e3d6000fd5b505050506040513d601f19601f820116820180604052508101906105cd9190610f03565b6105d657600080fd5b60038260028110610610577f4e487b7100000000000000000000000000000000000000000000000000000000600052603260045260246000fd5b0160009054906101000a900473ffffffffffffffffffffffffffffffffffffffff1673ffffffffffffffffffffffffffffffffffffffff166338ed17398683863361012c4261065f9190611298565b6040518663ffffffff1660e01b815260040161067f95949392919061116c565b600060405180830381600087803b15801561069957600080fd5b505af11580156106ad573d6000803e3d6000fd5b505050506040513d6000823e3d601f19601f820116820180604052508101906106d69190610ec2565b505050505050565b600381600281106106ee57600080fd5b016000915054906101000a900473ffffffffffffffffffffffffffffffffffffffff1681565b6000806003600160028110610752577f4e487b7100000000000000000000000000000000000000000000000000000000600052603260045260246000fd5b0160009054906101000a900473ffffffffffffffffffffffffffffffffffffffff1673ffffffffffffffffffffffffffffffffffffffff1663d06ca61f84866040518363ffffffff1660e01b81526004016107ae929190611113565b60006040518083038186803b1580156107c657600080fd5b505afa1580156107da573d6000803e3d6000fd5b505050506040513d6000823e3d601f19601f820116820180604052508101906108039190610ec2565b90508060018151811061083f577f4e487b7100000000000000000000000000000000000000000000000000000000600052603260045260246000fd5b602002602001015191505092915050565b600033905090565b6000806003600060028110610896577f4e487b7100000000000000000000000000000000000000000000000000000000600052603260045260246000fd5b0160009054906101000a900473ffffffffffffffffffffffffffffffffffffffff1673ffffffffffffffffffffffffffffffffffffffff1663d06ca61f84866040518363ffffffff1660e01b81526004016108f2929190611113565b60006040518083038186803b15801561090a57600080fd5b505afa15801561091e573d6000803e3d6000fd5b505050506040513d6000823e3d601f19601f820116820180604052508101906109479190610ec2565b905080600181518110610983577f4e487b7100000000000000000000000000000000000000000000000000000000600052603260045260246000fd5b602002602001015191505092915050565b600260009054906101000a900473ffffffffffffffffffffffffffffffffffffffff1681565b600080600060036000600281106109fa577f4e487b7100000000000000000000000000000000000000000000000000000000600052603260045260246000fd5b0160009054906101000a900473ffffffffffffffffffffffffffffffffffffffff1673ffffffffffffffffffffffffffffffffffffffff1663d06ca61f85876040518363ffffffff1660e01b8152600401610a56929190611113565b60006040518083038186803b158015610a6e57600080fd5b505afa158015610a82573d6000803e3d6000fd5b505050506040513d6000823e3d601f19601f82011682018060405250810190610aab9190610ec2565b905060006003600160028110610aea577f4e487b7100000000000000000000000000000000000000000000000000000000600052603260045260246000fd5b0160009054906101000a900473ffffffffffffffffffffffffffffffffffffffff1673ffffffffffffffffffffffffffffffffffffffff1663d06ca61f86886040518363ffffffff1660e01b8152600401610b46929190611113565b60006040518083038186803b158015610b5e57600080fd5b505afa158015610b72573d6000803e3d6000fd5b505050506040513d6000823e3d601f19601f82011682018060405250810190610b9b9190610ec2565b905080600181518110610bd7577f4e487b7100000000000000000000000000000000000000000000000000000000600052603260045260246000fd5b602002602001015182600181518110610c19577f4e487b7100000000000000000000000000000000000000000000000000000000600052603260045260246000fd5b60200260200101511115610c7657600082600181518110610c63577f4e487b7100000000000000000000000000000000000000000000000000000000600052603260045260246000fd5b6020026020010151935093505050610cc1565b600181600181518110610cb2577f4e487b7100000000000000000000000000000000000000000000000000000000600052603260045260246000fd5b60200260200101519350935050505b9250929050565b600160009054906101000a900473ffffffffffffffffffffffffffffffffffffffff1681565b6000610d01610cfc846111eb565b6111c6565b90508083825260208201905082856020860282011115610d2057600080fd5b60005b85811015610d505781610d368882610dc6565b845260208401935060208301925050600181019050610d23565b5050509392505050565b6000610d6d610d6884611217565b6111c6565b90508083825260208201905082856020860282011115610d8c57600080fd5b60005b85811015610dbc5781610da28882610e59565b845260208401935060208301925050600181019050610d8f565b5050509392505050565b600081359050610dd58161148e565b92915050565b600082601f830112610dec57600080fd5b8135610dfc848260208601610cee565b91505092915050565b600082601f830112610e1657600080fd5b8151610e26848260208601610d5a565b91505092915050565b600081519050610e3e816114a5565b92915050565b600081359050610e53816114bc565b92915050565b600081519050610e68816114bc565b92915050565b60008060408385031215610e8157600080fd5b600083013567ffffffffffffffff811115610e9b57600080fd5b610ea785828601610ddb565b9250506020610eb885828601610e44565b9150509250929050565b600060208284031215610ed457600080fd5b600082015167ffffffffffffffff811115610eee57600080fd5b610efa84828501610e05565b91505092915050565b600060208284031215610f1557600080fd5b6000610f2384828501610e2f565b91505092915050565b600060208284031215610f3e57600080fd5b6000610f4c84828501610e44565b91505092915050565b6000610f618383610f6d565b60208301905092915050565b610f76816112ee565b82525050565b610f85816112ee565b82525050565b6000610f9682611253565b610fa08185611276565b9350610fab83611243565b8060005b83811015610fdc578151610fc38882610f55565b9750610fce83611269565b925050600181019050610faf565b5085935050505092915050565b610ff281611336565b82525050565b60006110038261125e565b61100d8185611287565b935061101d81856020860161135a565b6110268161147d565b840191505092915050565b61103a8161132c565b82525050565b60006020820190506110556000830184610f7c565b92915050565b60006060820190506110706000830186610f7c565b61107d6020830185610f7c565b61108a6040830184611031565b949350505050565b60006040820190506110a76000830185610f7c565b6110b46020830184611031565b9392505050565b60006020820190506110d06000830184610fe9565b92915050565b600060208201905081810360008301526110f08184610ff8565b905092915050565b600060208201905061110d6000830184611031565b92915050565b60006040820190506111286000830185611031565b818103602083015261113a8184610f8b565b90509392505050565b60006040820190506111586000830185611031565b6111656020830184611031565b9392505050565b600060a0820190506111816000830188611031565b61118e6020830187611031565b81810360408301526111a08186610f8b565b90506111af6060830185610f7c565b6111bc6080830184611031565b9695505050505050565b60006111d06111e1565b90506111dc82826113bf565b919050565b6000604051905090565b600067ffffffffffffffff8211156112065761120561144e565b5b602082029050602081019050919050565b600067ffffffffffffffff8211156112325761123161144e565b5b602082029050602081019050919050565b6000819050602082019050919050565b600081519050919050565b600081519050919050565b6000602082019050919050565b600082825260208201905092915050565b600082825260208201905092915050565b60006112a38261132c565b91506112ae8361132c565b9250827fffffffffffffffffffffffffffffffffffffffffffffffffffffffffffffffff038211156112e3576112e26113f0565b5b828201905092915050565b60006112f98261130c565b9050919050565b60008115159050919050565b600073ffffffffffffffffffffffffffffffffffffffff82169050919050565b6000819050919050565b600061134182611348565b9050919050565b60006113538261130c565b9050919050565b60005b8381101561137857808201518184015260208101905061135d565b83811115611387576000848401525b50505050565b600060028204905060018216806113a557607f821691505b602082108114156113b9576113b861141f565b5b50919050565b6113c88261147d565b810181811067ffffffffffffffff821117156113e7576113e661144e565b5b80604052505050565b7f4e487b7100000000000000000000000000000000000000000000000000000000600052601160045260246000fd5b7f4e487b7100000000000000000000000000000000000000000000000000000000600052602260045260246000fd5b7f4e487b7100000000000000000000000000000000000000000000000000000000600052604160045260246000fd5b6000601f19601f8301169050919050565b611497816112ee565b81146114a257600080fd5b50565b6114ae81611300565b81146114b957600080fd5b50565b6114c58161132c565b81146114d057600080fd5b5056fea2646970667358221220a5f01978da66adb067bf4d81ef785a4ea742d7d8c35af57b7ecdeebe512054f864736f6c63430008020033",
  "immutableReferences": {},
  "source": "pragma solidity ^0.8.2;\r\n\r\nimport \"./interfaces/RouterInterface.sol\";\r\nimport \"@openzeppelin/contracts/token/ERC20/IERC20.sol\";\r\n\r\ncontract DexAggregator {\r\n    string public name = \"viktor\";\r\n\r\n    address public WETH;\r\n    address public USDC;\r\n\r\n    RouterInterface[2] public routers;\r\n\r\n    constructor() {\r\n        routers[0] = RouterInterface(\r\n            0x7a250d5630B4cF539739dF2C5dAcb4c659F2488D\r\n        ); // UNISWAP\r\n        routers[1] = RouterInterface(\r\n            0xd9e1cE17f2641f24aE83637ab66a2cca9C378B9F\r\n        ); // SUSHISWAP\r\n        WETH = 0xC02aaA39b223FE8D0A0e5C4F27eAD9083C756Cc2;\r\n        USDC = 0xA0b86991c6218b36c1d19D4a2e9Eb0cE3606eB48;\r\n    }\r\n\r\n    function uniRate(address[] memory path, uint256 amountIn)\r\n        public\r\n        view\r\n        returns (uint256)\r\n    {\r\n        uint256[] memory uniswap = routers[0].getAmountsOut(amountIn, path);\r\n        return uniswap[1];\r\n    }\r\n\r\n    function sushiRate(address[] memory path, uint256 amountIn)\r\n        public\r\n        view\r\n        returns (uint256)\r\n    {\r\n        uint256[] memory sushi = routers[1].getAmountsOut(amountIn, path);\r\n        return sushi[1];\r\n    }\r\n\r\n    function getHighestAmountOut(address[] memory path, uint256 amountIn)\r\n        public\r\n        view\r\n        returns (uint256, uint256)\r\n    {\r\n        // getAmountsOut returns array in which the item at index 1 is the rate\r\n        uint256[] memory uni = routers[0].getAmountsOut(amountIn, path);\r\n        uint256[] memory sushi = routers[1].getAmountsOut(amountIn, path);\r\n        // return the best exchange index + the actual rate\r\n        if (uni[1] > sushi[1]) {\r\n            return (0, uni[1]);\r\n        } else {\r\n            return (1, sushi[1]);\r\n        }\r\n    }\r\n\r\n    function sender() public view returns (address) {\r\n        return msg.sender;\r\n    }\r\n\r\n    // remember usdc uses 6 decimals\r\n    function usdcToWeth(uint256 usdcAmount) public {\r\n        // get instance of token\r\n        IERC20 token = IERC20(USDC);\r\n\r\n        // contract transfers some of users tokens to itself\r\n        token.transferFrom(msg.sender, address(this), usdcAmount);\r\n\r\n        // create path\r\n        address[] memory path = new address[](2);\r\n        path[0] = USDC;\r\n        path[1] = WETH;\r\n\r\n        // calculate best rate\r\n        (uint256 routerIndex, uint256 minAmountOut) = getHighestAmountOut(\r\n            path,\r\n            usdcAmount\r\n        );\r\n\r\n        // contract approves router to spend tokens\r\n        require(token.approve(address(routers[routerIndex]), usdcAmount));\r\n\r\n        // perform swap\r\n\r\n        // we are setting the minimum amount about to the max amount, fails if we get any less\r\n        // we are allowing the swap to tale at most 5 minutes\r\n\r\n        routers[routerIndex].swapExactTokensForTokens(\r\n            usdcAmount,\r\n            minAmountOut,\r\n            path,\r\n            msg.sender,\r\n            block.timestamp + 5 minutes\r\n        );\r\n    }\r\n}",
  "sourcePath": "/Users/viktorkuzmanov/Desktop/dex-aggregator copy/contracts/DexAggregator.sol",
  "compiler": {
    "name": "solc",
    "version": "0.8.2+commit.661d1103.Emscripten.clang"
  },
  "schemaVersion": "3.4.4",
  "updatedAt": "2022-01-19T17:58:15.008Z",
  "networkType": "ethereum",
  "devdoc": {
    "kind": "dev",
    "methods": {},
    "version": 1
  },
  "userdoc": {
    "kind": "user",
    "methods": {},
    "version": 1
  }
}